:1040000000000320396000002760000027600000E6
:10401000276000002760000027600000000000000B
:104020000000000000000000000000002760000009
:10403000276000000000000027600000A960000069
:104040002760000027600000276000002760000054
:104050002760000027600000276000002760000044
:104060002760000027600000276000002760000034
:104070002760000027600000276000002760000024
:104080002760000027600000276000002760000014
:104090002760000027600000276000002760000004
:1040A00027600000276000002760000027600000F4
:1040B00027600000276000002760000055460000D0
:1040C0005546000055460000554600005546000084
:1040D00027600000276000002760000027600000C4
:1040E00027600000276000002760000027600000B4
:1040F000000000002760000027600000276000002B
:104100002760000027600000276000002760000093
:104110002760000027600000276000002760000083
:104120002760000027600000814600008D460000E7
:1041300091460000954600002760000027600000BF
:104140002760000027600000276000002760000053
:104150002760000027600000276000002760000043
:104160002760000027600000276000002760000033
:104170002760000027600000000000000000000031
:1041800029600000BB600000BF600000C360000049
:10419000000000002760000027600000276000008A
:1041A00027600000276000002760000027600000F3
:1041B00027600000276000002760000027600000E3
:1041C00027600000276000002760000027600000D3
:1041D00027600000276000002760000027600000C3
:1041E00027600000276000002760000027600000B3
:1041F000276000000000000027600000276000002A
:104200002760000027600000276000002760000092
:104210002760000027600000276000002760000082
:104220002760000027600000276000002760000072
:104230002760000027600000276000002760000062
:104240002760000027600000276000002760000052
:104250002760000027600000276000002760000042
:104260002760000010B5054C237833B9044B13B117
:104270000448AFF300800123237010BD000100202B
:10428000000000000480000008B5034B1BB1034987
:104290000348AFF3008008BD0000000004010020C7
:1042A0000480000010B50121022002F06FF9012105
:1042B000022002F0AFF94FF4E131134800F0B8FAF0
:1042C0001249114801F07CFA11490F4801F078FABF
:1042D0000E490D4801F074FA4FF47A7001F026FF90
:1042E0000C4800F0C1F80C49074801F069FA0B4886
:1042F0000B4A0023332455211C5499540133B3F540
:10430000805FF9D110BD00BF88240020B97800007B
:10431000D17800001C210020DF7800001C11002053
:104320001C010020F0B51C4D1C491D4C85B02846D1
:1043300001F046FA1B49284601F042FA00260127FF
:10434000194B02938DF80D6004AB8DF80C7013E9D6
:104350000600204600F0B0F83146022002F05AF97B
:104360004FF48053114A12490096204600F0D7F8C6
:10437000204600F0CFF83946022002F04BF92046E3
:1043800000F0B8F80B49284601F01AFA642005B08D
:10439000BDE8F04001F0CABE88240020B9780000D2
:1043A0001C2100209C78000040787D011C01002029
:1043B0001C110020B2780000F8B5044610300D46FC
:1043C00017461E4600F004F904F1240000F000F93D
:1043D000002084F84000C4E90E0084F841006065C4
:1043E00084F8480060722DB9094B0A4A0A48222114
:1043F00002F010FA9DF8183063719DF81C30E371DB
:104400009DF8203025602771A67123722046F8BDE3
:10441000EF7800006379000000790000437A23B947
:104420008372C372C3600123437270471FB5044691
:1044300004AB006803E9060001F09EFA9DF80D3018
:10444000227AE17900932068002301F0C7FB2068FD
:10445000029A9DF80C1001F0A4FA206804B0BDE89F
:10446000104001F07FBA000070B50546FFF7D6FF97
:104470000F4E0079182404FB006393F9081002F032
:10448000F3F8A87904FB006393F9081002F0ECF844
:10449000687904FB006494F9081002F0E5F8054B14
:1044A000284693E80600BDE87040FFF7BFBF00BF95
:1044B000B87900007421002017B4837A6C4684E830
:1044C000060043B19A070DD5EFF31083B3FA83F3D7
:1044D0005B09C37272B694E8060003B05DF8044B42
:1044E000FFF7A4BFDB0742BF014B8289DA60F2E726
:1044F00000280040837A53B19A0703D5C37A33B1B9
:1045000062B67047DB0742BF014B82891A61704770
:104510000028004090F84830002BFBD0704773B55E
:1045200000269DF8185000960446FFF7F8FF2DB1BD
:10453000204602B0BDE87040FFF7ECBF02B070BD8E
:104540001FB50A4A0A4B13600023537113710222EC
:10455000CDE901321A230093182219230549064890
:10456000FFF72AFF05B05DF804FB00BF74210020AF
:1045700000093D00582400201C210020084B186829
:1045800040B9EFF31082074942B972B6BFF35F8FAB
:1045900001220A701A6801321A6070470870F9E740
:1045A000802100207C210020074B1A6852B11A6834
:1045B000013A1A601B682BB9044B1B7813B1BFF387
:1045C0005F8F62B6704700BF802100207C210020F1
:1045D000FF2202700321002242708270C2700271B9
:1045E00041718260C26002617047000010B4184BD4
:1045F00003EB011191F84E10C9B211F001040CD077
:10460000017803EB0113012183F84E10042343705A
:104610008368D3B15DF8044B184711F0020F08D03E
:10462000017803EB0113022183F84E10C368447034
:10463000EFE7490709D5017803EB0113042183F85B
:104640004E10072343700369E3E75DF8044B70479E
:1046500000A0004108B5FFF791FF074B198C074BED
:1046600001F01F0153F8210008B1FFF7BFFFBDE8BB
:104670000840FFF799BF00BF00A00041842100203F
:10468000014801F0F3BB00BF04220020FFF7F8BF90
:10469000FFF7F6BFFFF7F4BF13B512491248134CEA
:1046A00001F0CAF81249134801F0C6F8124913483C
:1046B00001F0C2F81249204601F0BEF84FF08641E1
:1046C000104801F0B9F81049104801F0B5F801237D
:1046D0000022CDE9003221460D4801F065FB02B011
:1046E00010BD00BF003000404024002064240020A2
:1046F000003400404C2400200020014158240020B8
:104700000040014170240020000400437C2400206C
:10471000042200203F20704713B502AB026803F863
:10472000011D546819460122A04702B010BD0221A4
:10473000006900F003BC0321006900F013BC000015
:1047400010B51346074AD27904461AB901236360AB
:10475000002010BD0A460069032100F0F5FC002886
:10476000F4D0F6E70400002010B5054C2368591C6E
:1047700004D103685B69984703462060184610BD62
:1047800050000020064A1368591C03D10221006919
:1047900000F0CABC4FF0FF3111601846704700BFEF
:1047A000500000200378034902330370422202487C
:1047B00000F06CBD0C000020A424002010B502788D
:1047C0004378A12A08D1212B1BD10722154916486D
:1047D00000F05CFD012010BD212A12D1202B12D146
:1047E00007221049104800F0FBFB0E4B1A68B2F587
:1047F000966F0ED1D87910F001040AD1FA2000F09A
:10480000E9FF0020E7E7222B06D1064B8278DA7118
:10481000EBE700F0E5FFF4E7232BF2D1034B4288EE
:104820001A60EEE704000020A4240020000000200D
:1048300070470000054B00224FF47A71C3E9012153
:1048400003491960034919611A76704788240020CA
:10485000287E0000A4240020704710B501F1080450
:1048600000F00F02D3B2092ACCBF3733303304F83B
:10487000013DA1424FEA1010F2D110BD10B504461F
:10488000806902F023F8A06A02F020F8204610BDEB
:1048900010B50446FFF7F2FF204601F089FC2046E0
:1048A00010BD00000329F0B407D12B4B53F82000B2
:1048B000F0B10368F0BCDB68184782291AD1274998
:1048C000274AC3B201EB43150324AE6964F31E7695
:1048D000AE610968083302EB80105B016861C8189B
:1048E000027942F080020271CA5C64F30612CA5473
:1048F000F0BC70470029FBD1184DC3B205EB431241
:104900000327946867F31E749460164C083304EB15
:10491000801050605B012868C45C012666F30204C5
:10492000C454D2F818C00E4C67F31E7CC2F818C0ED
:104930005461C45C66F30614C454C51893684020DF
:1049400060F39B339360936861F30D0393606B791D
:1049500003436B71CCE700BFA82400205C29002032
:10496000D024002090260020EFF310820260012264
:10497000426072B67047036813B962B6BFF36F8FB7
:10498000704737B5056904466846ADB9FFF7ECFFD7
:10499000019B13F1FF3303D394F82450EDB2F8E7F1
:1049A00068460193FFF7E7FF15B9002003B030BD5B
:1049B000206AE369C01AF9E7FFF7D6FF019B0025DB
:1049C00013F1FF3303D394F83450EDB2F8E768469F
:1049D0000193FFF7D0FF002DE7D0206BE36AE9E7F2
:1049E0004368027A1B6803EB421393F8092142F0F3
:1049F000010283F80921027A4368C16803EB42137C
:104A00009A6861F39B329A60027A436803EB42131F
:104A10009A686FF30D029A604368027A1B68083245
:104A200003EB42131A7942F040021A717047F7B54E
:104A3000036904460E4617466846002B44D1FFF72B
:104A400093FF019B013B5D1C0ED094F82420591E5E
:104A500002F0FF0532B968460193FFF78CFF284644
:104A600003B0F0BD0B46EEE768460193FFF783FF06
:104A70000025AF42E36909D0226A9A4206D9A269A9
:104A8000591CE161D35C73550135F2E7226A9A4201
:104A9000E5D100260123E66123616846FFF764FF44
:104AA0003746019B013B581CD5D084F8246094F80C
:104AB0003520591E32B184F8357020460193FFF736
:104AC0008FFFEEE70B46EEE7FFF74EFF019B013B42
:104AD000591C08D094F83420591E02F0FF05002A12
:104AE000B9D00B46F4E768460193FFF744FF002571
:104AF000BD42E36A02D0226B9A421AD8226B9A42D4
:104B0000ADD10026E66226616846FFF72DFF3746E5
:104B1000019B013B5A1C9ED084F8346094F83520E8
:104B2000591E6AB184F8357020460193FFF758FF8B
:104B3000EEE7A26A591CE162D35C73550135D7E7F1
:104B40000B46E7E737B54368027A1B68083203EB88
:104B500042130446DA79D00727D50125DD71D4E95F
:104B60000132D2B203EB421361699A68C2F30D02BB
:104B700009BB2262226A002A3CD0A26A65616846AB
:104B80005A60FFF7F1FE019B013B591C2ED084F8BF
:104B9000245094F83420591E02F0FF003AB184F8F2
:104BA000355068460193FFF7E6FE03B030BD84F848
:104BB00035000B46E9E72263226BDAB1002262611D
:104BC000A2695A606846FFF7CFFE019B013B5A1C61
:104BD0000CD084F8345094F82420591E02F0FF00C1
:104BE000002ADCD184F835000B46F0E768460193D3
:104BF000FFF7C1FE2046FFF7F3FED6E737B502AD5B
:104C0000002305F8013D0C462846FFF7CBFD23683D
:104C10001844206001F0AEFD294601F07BFD2368B9
:104C2000184420609DF8070003B030BD03290BD164
:104C30000C4B1B6893F8642142F0800283F86421D6
:104C4000022283F86721704701290AD1054B1B68AE
:104C500093F8242142F0800283F82421022283F871
:104C6000272170475C290020404B70B501210024AA
:104C700006461C201C7001F089FC01211C2001F05B
:104C8000C9FC3B4B3B4D1C7001211B2001F07EFCFD
:104C900001211B2001F0BEFC374B38489A6942F0D5
:104CA00001029A611A6942F480621A61344B93F8E6
:104CB000582042F0010283F8582093F83C2002F07B
:104CC000F00283F83C2093F83C2042F0070283F87E
:104CD0003C2093F8592042F0010283F8592093F8C0
:104CE0003C2002F00F0283F83C2093F83C2042F075
:104CF000700283F83C20234B4122C3F8A82001F026
:104D0000E3F9284601F048FD284601F05FFD2A68D6
:104D1000137864F3C71313702A68137843F00403FD
:104D200013702A68138964F383031381164B4FF4BD
:104D3000803183F8504383F8514383F8524383F81A
:104D4000534399604FF4003199604FF4802199608A
:104D50004FF400219960137843F0020313702A681E
:104D600093789B07FCD40123337070BDC5240020C9
:104D7000C42400205C2900200008004045570000A2
:104D800000800041001C004000E100E0007880B19C
:104D9000084B1B681A896FF300021A811A8B42F0C4
:104DA00008021A831A8B42F004021A83024B002273
:104DB0001A6070475C290020542900200E4B9A6924
:104DC0006FF30D029A611B68022283F8072193F8A2
:104DD000052142F0800283F8052193F8072192070C
:104DE000FBD54FF082439A7A61F306029A729A7A5F
:104DF00042F080029A7270475C2900200B7910B54E
:104E00000C465BB90846FFF7D9FC08B1012010BD7C
:104E1000094B9A6960F30D029A61F7E701F0AAFC69
:104E2000214601F098FC0028F0D1034B9A6960F309
:104E30000D029A61EBE700BF5C290020832A2DE96F
:104E4000F0410D4616D1CBB23049314A01EB431047
:104E50000326846966F31E748461083302EB8515AA
:104E6000096845615B010420CA5C60F30612CA54FC
:104E7000BDE8F081022A42D1264E56F8210010B139
:104E800003685B699847382001F090F91F4F224B67
:104E900003604FF48078002304460362C0E9038373
:104EA00080F8243043610363C36180F83430C36207
:104EB00080F83530C0E90175404601F0FFFCA06183
:104EC000404601F0FBFCEBB207EB4312A062916895
:104ED000032060F31E719160083339685B01CA5C7E
:104EE00060F30202CA546368217AA26903EB41139A
:104EF00020465A60FFF774FD46F82540B8E728467B
:104F00001146BDE8F041FFF7CDBC00BF5C29002091
:104F1000D0240020A82400204C7E000070B5064E4E
:104F20000546012456F824202AB121462846FFF7D9
:104F300085FF0134F6E770BD54000020074B53F89D
:104F4000210010B103689B681847054BC9B203EBF9
:104F500041118868C0F30D00704700BFA8240020ED
:104F60005C29002010B50C46FFF7E8FF58B1064B4E
:104F7000E4B21968083401EB44114B7943F0800323
:104F80004B710223CB7110BD5C290020124B30B550
:104F9000CAB203EB8111114B550158190824416025
:104FA000816864F39B31816081686FF30D018160DA
:104FB0001868224400EB42110C7944F040040C7153
:104FC0008C796406FCD500EB4212D179C907FCD577
:104FD0002B449868C0B230BD902600205C29002088
:104FE00038B50C4B14461A6892F8043143F040036C
:104FF00082F804310D460021FFF7C8FF0649A042A0
:1050000028BF20460023A34203D05A5CEA54013350
:10501000F9E738BD5C2900209026002010B50B4B25
:10502000C9B2490158180B448268C2F30D023F2AE5
:1050300089BF84688268403A62F30D0496BF6FF3BB
:105040000D02846082609868C0B210BD5C290020A7
:105050002DE9F0471D462F4B1B6807460E4691462B
:10506000002B54D02C4C227802F0FF0112B91B20E7
:1050700001F0D0FA64232370284B53F8260030B196
:1050800003682A4649465B68BDE8F0471847314641
:105090003846FFF753FF854204D931463846FFF7BB
:1050A0004DFF0546DFF87CA031463846FFF7B6FFD6
:1050B000F4B2DAF800301A494FEA4418434401EBDD
:1050C000861193F8082142F0010283F8082148462E
:1050D0002A4601F003FCBDB131463846FFF72EFFEA
:1050E00090B9DAF8002004F1080302EB43131979B0
:1050F00041F0400119710121D97102EB080393F8C5
:1051000009210A4383F809212846BDE8F0874FF0BA
:10511000FF35F9E754290020C4240020A8240020EA
:10512000902600205C29002007B501230DF107021D
:10513000FFF78EFF01280CBF9DF807004FF0FF30EE
:1051400003B05DF804FB00002DE9F74F9846384B9B
:105150001B6889469246002B42D0B8F5804F3FD855
:10516000344C227802F0FF0112B91C2001F052FAEF
:10517000642323705FFA89F42F4B04F1080B4FEA84
:105180004B1203EB891300260192B8F1000F29D0CE
:105190002A4A01991568691889790092C90928492C
:1051A00024D0284A28481268B2FBF0F0274A42432C
:1051B0001720B2FBF0F205EB4B10C779BF0715D4EF
:1051C00011F8097017B912F1FF32F6D2012301F874
:1051D0000930009B03EB4414A3696FF30D03A36133
:1051E0004FF0FF36304603B0BDE8F08F4746402F02
:1051F00028BF4027002201F80920184651463A46A8
:1052000001F06CFB009A02EB441205EB4B15506168
:10521000916967F30D0191610222EA716A7942F0A6
:10522000800203466A713E44A8EB0708BA44ACE723
:1052300054290020C5240020D02400205C2900200F
:10524000C72400208000002040420F0070110100A0
:1052500070B50C4C0D4604EB8514114620461A46D9
:105260001E4601F03BFB0849EDB201EB451130460B
:105270004C618B696FF39B338B618B6966F30D0314
:105280008B6170BDD02400205C290020114B1B785D
:105290002DE9F04107468846164653B90E4B1C7857
:1052A00054B10E4D0E482C882044344401F016FBB6
:1052B0002C803046BDE8F0811546002DF9D02B46F4
:1052C00008EB040200213846FFF7C2FF04442D1A00
:1052D000F3E700BF50280020512900205229002068
:1052E00051280020F8B5012A00AF0D4614462BD9ED
:1052F000D31D03F4FC73ADEB030D084601F080FEF3
:105300000130400003238DF800008DF801306E4617
:10531000013D02230020A3420CD215F8011F49B120
:105320005A1CD2B29442F15403D00233B054DBB2CF
:10533000F1E723461A4631460448FFF7A7FF00303D
:1053400018BF0120BD46F8BD0020FBE7A4240020C3
:105350002DE9F04385B004AE002446F8104DDFF887
:105360008890884601273146054689F80070FFF786
:1053700045FC40F20923ADF80430A0238DF80B3032
:1053800032238DF80C30009B8DF80A400933B8F1B8
:10539000090F8DF80970ADF806308DF8080089F80E
:1053A000004008D1424601A92846FFF76FFF0120BF
:1053B00005B0BDE8F083DFF83480009488F8007011
:1053C000074F092201A928463C80FFF75FFF3146BD
:1053D0002846FFF713FC88F800403A880149E3E7C4
:1053E0005229002051280020502800205129002057
:1053F000F0B5CF78022F93B006460D4608D1C98884
:105400002C48FFF7A5FF003018BF012013B0F0BDF6
:1054100001F0B0F9294601F090F9041E03D0CCBF89
:1054200001200020F2E7012F0AD1EA88112A3CD896
:105430002149D2B262B13046FFF728FF0120E5E7EB
:10544000032F34D1AB782BB9EA88032A2AD91B4918
:105450000A78F0E7022B05D1AA7919493046FFF7FF
:1054600041FFD3E7012B02D1AA791649F6E7032BB6
:105470001DD1154B01A91868FFF7EFF9134B03A9CC
:105480001868FFF7EAF9124B05A91868FFF7E5F964
:10549000104B07A91868FFF7E0F98DF82440AA79A6
:1054A00001A9DBE7D2B20549C4E70349D0E72046AA
:1054B000ACE700BFA4240020877E0000767E0000B9
:1054C000647E00007A7E0000FC6180001060800035
:1054D000146080001860800037B54B780C460B2BA9
:1054E0000FD8DFE803F0061E0E2F0E4549774C4F0C
:1054F0006B6E097841B9ADF80410022301AAFFF7D9
:10550000A7FE012003B030BD0023ADF80430324BBC
:105510001B78012B08BF8DF8043001AA022300215B
:10552000EDE78B78012B4FF0000303D1ADF8043089
:105530002A4BEDE7284A1370294A916963F30D015C
:105540009161DEE78C78012C07D1244B02AA00215F
:105550001C7002F8041D2346D1E7002C3AD11E4BE3
:10556000012018701E4B9A6964F30D029A61C9E715
:105570008978FFF723FCC4E7FFF73AFFC2E701236E
:10558000184ACCE70B7813F01F0523D1FFF7C6FCB0
:10559000144BA2781A60124A136893F8291141F04B
:1055A000020183F8291193F8491141F0010183F8B0
:1055B0004911936965F30D039361A2E701230A4A38
:1055C000ADE7094B8A781A60054B9A696FF30D02B3
:1055D0009A6196E7002095E7C6240020CE2400209B
:1055E0005C29002054290020582900202DE9F84387
:1055F0004D4B1D780746002D40F087804B4C2368AB
:105600009B8B19070ED529462846FFF74BF92368CF
:1056100093F8092142F0100283F80921444A1560E9
:1056200008229A8323689A8B52071BD504229A83F7
:10563000404A13784BB11378013BDBB213701378F7
:105640001BB901211C2000F0E5FF3B4A13784BB148
:105650001378013BDBB2137013781BB901211B20B7
:1056600000F0D8FF236893F80721D60626D510222C
:1056700083F8072193F80421304942F0400283F86F
:1056800004210B7813F0600F384640D1FFF724FF58
:10569000236800283ED093F8052142F0800283F869
:1056A000052193F80721550608D5402283F80721E4
:1056B00093F8082142F0400283F808212368DFF8BC
:1056C00080901E8C002506F0FE064FF00108E9B21E
:1056D000DEB146FA05F3D80714D5236805F10802B0
:1056E00003EB4213DA79D20702D4DB799B0705D5A5
:1056F00059F82500A0B103681B68984708FA05F31C
:1057000026EA03060135092DE1D1BDE8F883FFF74C
:1057100075FBBDE74FF08242202182F80511C0E7FA
:105720003846FFF783FAE9E7512900205C29002079
:1057300054290020C5240020C424002090260020E5
:10574000A82400200148FFF751BF00BFA424002077
:10575000024B4FF082421A60704700BF5C29002064
:105760002DE9F04106460D4601EB02080C46444582
:10577000A4EB050707D0336814F8011B1B683046FB
:1057800098470028F3D13846BDE8F08170B504464B
:1057900008460D4601F034FC23680246294620469F
:1057A0005B68BDE87040184709B1FFF7EFBF0846D6
:1057B000704700000149FFF7E9BF00BF997E000074
:1057C00038B50546FFF7F0FF04462846FFF7F2FF1D
:1057D000204438BD014B1860704700BF7C0000209A
:1057E000024B4FF0FF321A60704700BF7C00002070
:1057F0000C4A1368591C13D0013B136083B972B66D
:10580000094B0A4A1A60BFF34F8F0949094BCA680E
:1058100002F4E0621343CB60BFF34F8F00BFFDE79C
:10582000704700BF7C000020FCFF0220EF6916F0EB
:1058300000ED00E00400FA050122016002717047EA
:1058400070B506683568022B45EA827214BF4FF0C6
:105850008074002444EA0204346000689DF810401B
:10586000426801F0070141EA841114BF5B03002381
:105870000A431A43426070BD10B5036812051C68E4
:1058800002F440120904224301F440310A431A6031
:105890000268536843F44033536010BD02681368D4
:1058A00043F00103136003681A68D107FCD4DA6976
:1058B000D207F9D470470268136843F002031360FB
:1058C0000268D3699B07FCD4704703681A7E12F004
:1058D000010F03D11A7E12F0020FFAE77047036836
:1058E00000225A8370470368187EC0F38000704717
:1058F0000368187EC00970470268137E43F0800376
:10590000137670470368588BC0F3400070470268F5
:10591000538B43F00203538370470368187E00F0F3
:10592000010070470368986AC0B2704703681A7E26
:10593000D207FCD5996201207047036801229A754D
:105940007047036801221A7570470268136843F0B4
:105950000103136003681A68D107FCD4DA69D2071F
:10596000F9D470470268136843F0020313600268B9
:10597000D3699B07FCD470470268D369C3F3400323
:10598000002BFAD1116863F341011160704749009F
:105990008068B0FBF1F080B208B1013880B2C0B2CB
:1059A000704770B50468C1F3400601F00101256835
:1059B000090741EA46712943216011460368FFF750
:1059C000E6FF187370BD00000368124A934213D0BB
:1059D00002F58062934211D00F4A934210D002F533
:1059E000005293420ED0B3F1864F0DD00B4A934232
:1059F0000CD1052040B270470020FBE70120F9E7F9
:105A00000220F7E70320F5E70420F3E74FF0FF302B
:105A1000704700BF003000400020014100040043F7
:105A2000052A30B52BD0284C09010C44B3B121799B
:105A3000264C203154F821506FF3861544F821503C
:105A400054F821506D06FBD463B302710AB3012AE6
:105A50002ED1412344F821301D4B0AE06179E7E75C
:105A6000032A1A4C0CD1432244F8212013B14FF4DD
:105A700000438360154B53F821205206FBD530BDFF
:105A8000042AF7D1442244F82120002BF2D0114BF4
:105A9000EFE7402344F821300F4BEAE7402344F876
:105AA0002130E7E7002AF9D0012A08D14123F6E79F
:105AB000022AD5D1422344F82130084BD9E7022AE3
:105AC000CED14223EBE700BF9C7E0000001C0040CB
:105AD000006CDC02001BB700000E270700E1F50593
:105AE0002DE9F0410446FFF76FFF051E3BDB1F4B1E
:105AF000DFF87CE0DFF87C8029B203EB0111043190
:105B000000204FF0010CC02731F9023F002B4FEA73
:105B1000531203F01F064FEA8202BCBF03F00F03CB
:105B2000043B02F1604202F56142B4BF4344734456
:105B300000F101000CFA06F6C0B2C2F88061B4BFF1
:105B40001F7683F8007304281660DDD12279294678
:105B500001232046FFF764FF227929460023BDE890
:105B6000F041FFF75DBFBDE8F08100BF9C7E000003
:105B700000E100E000ED00E02DE9F04104460F46B1
:105B800090461D46FFF7ACFF2046FFF787FEB800A2
:105B90004FEA483326689BB200F01C00184330607F
:105BA00023688422012F9A7514D12268B8F1010F5D
:105BB00091890CBF102308235D43074BB3FBF5F31A
:105BC00063F34F31918122689189C3F3CC0363F36E
:105BD0000C019181BDE8F0810060E316F8B505463F
:105BE0000F4614461E46FFF7B0FEFFF779FF240567
:105BF0009DF818102A6804F4401444EA81743904AA
:105C000044F00C0401F44031214311602B6806F08C
:105C1000070646F400365E602A68D3695B07FCD449
:105C2000F8BD01207047036840F213421B6A184711
:105C3000D0F81821D0F814319A421DBFD0F818318D
:105C4000C018007D4FF0FF30704710B50446006962
:105C5000FFF724FE0023C4F81431C4F81831C4F847
:105C60001C32C4F8203210BD01F0F001A1F1300364
:105C700058425841704701F47061B1F5007F08D077
:105C8000B1F5407F07D0B1F5807F0CBF0520002023
:105C90007047062070470720704701F00F01012967
:105CA00004D002290CBF0120022070470020704759
:105CB0002DE9F3410446334D90F82402182606FBE3
:105CC0000053884693F90810174600F0CDFC94F86D
:105CD000250206FB005393F9081000F0C5FC94F868
:105CE0002732022B09D194F83802FF2805D006FB91
:105CF000005696F9081000F0B7FC94F82802FF2827
:105D000017D0012100F042FC94F8282218235343B5
:105D1000E918EA561C4B4968D2011344C4F82C32E6
:105D20001A4B134401228A40C4F83032C4F834229A
:105D30001A600122434611462069FFF71DFF3946CC
:105D40002046FFF798FF394605462046FFF7A5FF96
:105D5000394602462046FFF787FF29461346009042
:105D600001222069FFF76CFD206994F8262294F83F
:105D70002712FFF781FD206902B0BDE8F041FFF76F
:105D80009ABD00BFB879000018800041148000411E
:105D900008B54FF48072002100F0ABFD0022C0F87E
:105DA0000021C0F8042108BDF8B516461D460022A2
:105DB0004FF47A73C0E901230F4B044640F8143BBB
:105DC0000F46FFF7E5FF04F58E70FFF7E1FF9DF842
:105DD000183084F826329DF81C3084F82732FF23CF
:105DE000276184F8246284F8255284F8283284F8E4
:105DF00038322046F8BD00BF047F0000D0F80031E3
:105E0000D0F80401181A48BF00F58070704738B503
:105E1000044600F58E752846FFF7F0FF0028FAD1FA
:105E20002069BDE83840FFF750BD08B51430FFF7D2
:105E3000E5FF08BDD0F80021D0F804319A42A5BF93
:105E4000D0F80031D0F80421D0F80431C3F1FF00BC
:105E5000AFBF8018D0F80001181A00F1FF3070476A
:105E600008B500F58E70FFF7E5FF08BD10B50446D4
:105E70000069FFF747FD28B12069FFF753FD20694E
:105E8000FFF745FD2069FFF72EFDF8B12069FFF708
:105E900049FDD4F81431D4F818210133DBB2934210
:105EA0001FBFD4F8142112191075C4F8143194F8D6
:105EB0002832FF2B0AD004F11400FFF7BBFF09289A
:105EC000DEBFD4F82C32D4F834221A602069FFF7F0
:105ED00024FDE0B104F58E70FFF790FF18B3D4F8FD
:105EE0002022D4F81C3220699A421BBFD4F82032F9
:105EF0001B194FF0FF3193F81C111FBFD4F820324B
:105F00000133DBB2C4F82032C9B2FFF70FFD2069BC
:105F1000FFF7EEFC58B12069FFF7EEFC2069BDE801
:105F20001040FFF7DCBC2069FFF70BFDEFE710BD69
:105F3000F8B5074600690C46FFF7EFFC00283DD195
:105F4000244D254ED7F81C32D7F820220133DBB27E
:105F500093421ED1EFF31083DB0711D46B68C3F3B8
:105F60000803002BEED0103B1BB2002BBDBF03F08B
:105F70000F03043B5B199B19B4BF1B7E93F80033DE
:105F80003869FFF7CAFC0028DCD03846FFF76EFFFF
:105F9000D8E7D7F81C32D7F820220133DBB293427E
:105FA0001EBFD7F81C22D21982F81C41386918BFCD
:105FB000C7F81C32FFF7C1FC0120F8BD07F58E7051
:105FC000FFF71CFF0028BBD121463869FFF7AEFC64
:105FD000F2E700BF00ED00E000E100E038B5D0F8E6
:105FE0001821D0F814319A421BBFD0F818311B1871
:105FF0004FF0FF351D7D1FBFD0F818310133DBB2E4
:10600000C0F8183190F82832FF2B044609D014301C
:10601000FFF710FF0A28C2BFD4F83032D4F8342278
:106020001A60284638BDFEE7024B1B6803B11847CB
:10603000704700BF602A002008B51549154B8B42F8
:106040000FD1154AD2F8883043F47003C2F8883073
:10605000BFF34F8FBFF36F8F00F0ACF800F086F8FE
:10606000FEE70E4A9A42ECD08B42104605D39A4284
:10607000E7D00B4B0B4A002106E0006843F8040B05
:106080000432F1E743F8041B9342FBD3D9E700BF86
:10609000000100200000002000ED00E0088000006A
:1060A00000010020842A002008B500F05CF818B92F
:1060B000BDE8084000F04EB808BDFFF7B5BFFFF7D8
:1060C000B3BFFFF7B1BF0000014B1860704700BFBE
:1060D000602A0020124A1349F0B5134D97684B68A7
:1060E0002E68C3F3806390684C68D5F800C0C4F391
:1060F0008064A3420FD166450DD187420BD352680D
:1061000042F22220D21B504333444FF47A7253435D
:1061100003EB1050F0BD664623460746E3E700BF99
:1061200010E000E000ED00E0642A002038B50446ED
:1061300070B1FFF7CFFF054600F014F8FFF7CAFF74
:10614000401BB0F57A7FF7D3013C05F57A75F5D1A0
:1061500038BD0000024A136801331360FFF748BBE3
:10616000642A0020704700207047704708B500F08F
:106170001DF900F07FFBFFF7F8FF0120FFF7D6FFC6
:106180000848094CFEF770FD0648FEF7FFFDFEF7D4
:1061900089F8FEF7C7F8FFF7E5FF002CF9D0AFF359
:1061A0000080F6E7A42400200000000000F086BB79
:1061B00000F08CBB6E4A13889BB213806D4B42F289
:1061C0000E029A82DA68D107FCD56B4B1A7842F03E
:1061D00001021A705A68D207FCD440F20512DA6242
:1061E0005A689006FCD44FF4827263491A624A6876
:1061F00012F00402FBD1614B1A77614A9A6293F85C
:106200002C2012F01002FAD183F820205B4B1A46A2
:1062100093F82C104907FBD4197F41F0020119773C
:1062200092F82C309807FBD4536A5362534B1A46AA
:1062300093F82C100907FBD4982183F820101369D8
:10624000D805FCD54C4B4F4A5A635A681106FCD40A
:106250004522C3F88420494B77225A63DA6B5207F0
:10626000FCD44FF400629A63022283F83020434B3F
:106270001A6C9007FCD51A6CD107F9D53E4A452116
:10628000C2F8881063229A643C4B1A6D5207FCD402
:106290004FF40062DA64022283F84420374B5A6DCF
:1062A0009007FCD55A6DD107F9D5334B40F2063231
:1062B0005A625A681207FCD44FF442729A625A68C2
:1062C000D006FCD4304A1A632B4B1A46596849064B
:1062D000FCD440F207311962536813F00403FBD178
:1062E0002A4901224A7101F58051886963F38200CD
:1062F000886172B6264B9A6062B6264AD36843F02C
:106300008073D360244A136843F0010313604FF095
:106310008013224A1B6803F003019184C3F3022215
:10632000C3F34211120142EA0122C3F382010A437C
:106330001B49A1F84820C3F38252C3F3C2411201A2
:1063400042EA0122C3F302431343164AA2F848303B
:10635000154B1A6802F01F01C2F3441343EA81137C
:10636000C2F3822243EA02334FF082421385704720
:106370000040004100140040001C0040001000409C
:10638000000001040601300006030400000800407C
:1063900000600041F0ED00E0001000E0002000424D
:1063A000001C004300200043840080003F4BF7B5F1
:1063B0001B684FF47A72B3FBF2F3013BB3F1807FB9
:1063C00070D23B494B603B4BC02283F8232007200F
:1063D00000228A600860802183F82310364B5969B7
:1063E00041F470415961996941F4FC419961D9695D
:1063F00041F07801D961196A6FEA91216FEA812130
:10640000196203F5A0534121C3F82011C3F82411E8
:1064100003F14073009303F5806301930424022584
:1064200005264FF4C0575DF82230198864F30A211D
:106430001980D98865F3C401D980196B0807FCD489
:10644000DE72196B4906FCD49F80196B11F00401B0
:10645000FBD19972186B10F02000FBD11AB300F039
:1064600031F8164B4422C3F82821D3F828215006CE
:10647000FBD5134A13469168C907FCD4117841F043
:10648000010111709A68D207FCD400225A709A89CF
:10649000022161F30B229A81DA8961F30B22DA81FE
:1064A00003B0F0BDFEE70122BDE700BF8000002081
:1064B00010E000E000ED00E000080040001C00409B
:1064C000002400432E4B1A46196BC906FCD42D49F3
:1064D0000B6BDB06FCD401382A4B0A284CD8DFE8CA
:1064E00000F0061B212529324B363A483E00264B48
:1064F000DA696FF31342DA61DA6942F00402DA61B1
:106500001F4A137A6FF30303137292F808346FF380
:10651000030382F8083470471B4BDA69012161F3E9
:106520001342E8E7184B0221DA69F8E7164B03211A
:10653000DA69F4E7144BDA69042161F31342DA6192
:10654000DA690A43DBE7104B0521DA69E7E70E4B0E
:106550000621DA69E3E70C4B0721DA69DFE7117AF4
:10656000042060F3030111721A7A60F303021A72B5
:106570007047117A0220F4E7117A0320F1E700BF97
:10658000001C00430020004300180040182310B5F1
:106590001F4C5843221892F90830013313D0526827
:1065A00023560120904003290DD8DFE801F0022591
:1065B0000D19DB0103F1824303F500431A44022164
:1065C00082F84010586010BDDB0103F1824303F5EF
:1065D00000431A44062182F8401058609861F2E79F
:1065E000DB0103F1824303F500431A44062182F8DC
:1065F000401058605861E6E7DB0103F1824303F580
:1066000000431A44022182F840109860DBE700BF83
:10661000B8790000182330B5114D58432B1893F961
:106620000820013219D05C682B56D80100F1824352
:1066300003F5004301229D68A240154209D123447D
:106640000D1C93F8404018BF012565F3820483F8C0
:106650004040044B034409B95A6130BD9A61FCE7DC
:10666000B87900000080004138B51822274D424318
:10667000AC1894F90830B3F1FF3F44D00D2905DC84
:10668000002915DA4B1C09D0002008E01129FBDC99
:106690000F2905D10021FFF779FFF5E7084638BD3E
:1066A000102901D10221F6E71129EDD10121F2E7EC
:1066B000AD566468164BED0162082B4414F00100DE
:1066C000C9B21A4410D092F8300000F00F0040EA2E
:1066D00001112344C9B282F8301093F8402042F0EF
:1066E000410283F84020CFE792F8305005F0F005E2
:1066F0002344294382F8301093F8402042F04102AD
:1067000083F84020CBE71846C9E700BFB8790000FE
:106710000080004170B544680E4600255CB12368D6
:1067200031465B6820469847002802DB0544E46850
:10673000F4E74FF0FF35284670BD38B544680D4684
:106740003CB1236829469B682046984710B9E46805
:10675000F6E7204638BD38B544680D463CB123689D
:1067600029461B682046984710B9E468F6E720469A
:1067700038BD0000064A136813F0010306D105492D
:1067800040F202404B6001230880136001487047CB
:10679000682A00206C2A002010B50346044653F8EE
:1067A000041B0A7842F001020A7018464FF4807206
:1067B000002100F09EF8226803469178C807FCD4B7
:1067C00091788907F9D4536210BD000030B5104BA1
:1067D00004681B68258D03F01F011F2908BF0521D0
:1067E00061F38A1525850168C3F344120C8D1F2AB5
:1067F00008BF1D2262F304040C850268C3F38223E0
:10680000118D072B08BF032363F30E31118530BDB3
:10681000840080001FB51C46094B1B680546D868DC
:1068200052B1084B0091CDE9013207492B4622466F
:1068300000F00EF800F0ACFC044B1A46F2E700BF83
:1068400084000020307F00003D7F00009B7E000020
:106850000EB403B5014603AB054853F8042B00689A
:10686000019300F021F902B05DF804EB03B070472A
:106870008400002070B50D4E0D4CA41BA410002503
:10688000A54209D10B4E0C4C00F0FCFFA41BA41038
:106890000025A54205D170BD56F825309847013531
:1068A000EEE756F8253098470135F2E7E80000207A
:1068B000E8000020E8000020FC000020024B014618
:1068C000186800F06DB800BF84000020024B01463C
:1068D000186800F017B800BF8400002010B5431EF0
:1068E0000A44914200D110BD11F8014B03F8014F49
:1068F000F7E702440346934200D1704703F8011BB7
:10690000F9E7000038B50546002945D051F8043CA8
:106910000C1F002BB8BFE41800F072FE1F4A13686A
:10692000104633B9636014602846BDE8384000F073
:1069300068BEA3420CD921686218934204BF1A684A
:106940005B68636004BF521822600460ECE7134682
:106950005A680AB1A242FAD919685818A0420BD154
:1069600020680144581882421960DDD110685268CD
:106970005A6001441960D7E702D90C232B60D3E792
:10698000206821188A4204BF11685268626004BFFF
:10699000091821605C60C7E738BD00BF742A002079
:1069A00070B5CD1C25F0030508350C2D38BF0C251E
:1069B000002D064601DBA94203D90C2333600020D9
:1069C00070BD00F01DFE214A1468214691B9204C8B
:1069D00023681BB9304600F003FB2060294630468F
:1069E00000F0FEFA431C24D10C233360304600F043
:1069F00008FEE4E70B685B1B18D40B2B0FD90B6068
:106A0000CD50CC18304600F0FCFD04F10B00231DE6
:106A100020F00700C31AD3D05A42E250D0E78C428C
:106A20004B6816BF636013600C46EBE70C46496881
:106A3000CCE7C41C24F00304A04205D0211A304640
:106A400000F0CEFA0130CFD02560DBE7742A0020B9
:106A5000782A00209368013B002B10B4936008DA79
:106A60009469A34201DB0A2903D15DF8044B00F0CD
:106A7000CFBA1368581C1060197008465DF8044BB3
:106A80007047F8B506460F461446D518AC4201D1FA
:106A9000002007E03A4614F8011B3046FFF7DAFF02
:106AA000431CF3D1F8BD00002DE9F04F9DB00C461A
:106AB00017460393064618B183690BB900F060FCD2
:106AC0007B4B9C4257D17468A38918075DD5236915
:106AD000002B5AD00023099320238DF8293030232E
:106AE0008DF82A304FF0010BB846454615F8013BAA
:106AF0000BB1252B54D1B8EB070A0BD053463A46BD
:106B000021463046FFF7BDFF013000F0C280099BEF
:106B10005344099398F80030002B00F0BA8000230A
:106B20004FF0FF32CDE90523049307938DF85330DE
:106B30001A93A846052218F8011B5E4800F010FDC4
:106B4000049B78BBD90644BF20228DF853201A0736
:106B500044BF2B228DF853202A782A2A2AD0079A5C
:106B6000A84600200A25414611F8013B303B092B7D
:106B700069D960B324E0504B9C4201D1B468A3E7CB
:106B80004E4B9C4208BFF4689EE72146304600F019
:106B900091FA00289ED04FF0FF301DB0BDE8F08F75
:106BA000A846A2E7434A801A0BFA00F01843049063
:106BB0004546BEE7039A111D12680391002A01DBC6
:106BC000079204E0524243F002030792049398F8BC
:106BD00000302E2B0ED198F801302A2B38D1039B90
:106BE0001A1D1B680392002BB8BF4FF0FF3308F14A
:106BF00002080593324D98F800100322284600F051
:106C0000AFFC40B14023401B03FA00F0049B034358
:106C100008F10108049398F800102A488DF828100C
:106C2000062208F1010700F09BFC002837D0264B14
:106C30001BBB039B073323F0070308330393099B14
:106C40004B44099350E705FB0232012088468AE74E
:106C5000002308F10108059319460A25404610F85B
:106C6000012B303A092A03D9002BC3D00591C1E783
:106C700005FB012101238046F0E703AB0093224688
:106C8000124B04A93046AFF30080B0F1FF3F8146BC
:106C9000D5D1A3895B063FF57EAF09987DE703ABAD
:106CA00000932246094B04A9304600F087F8ECE730
:106CB000C47F0000707F0000E47F0000A47F00001C
:106CC000767F00007A7F000000000000836A0000E9
:106CD0002DE9F04791461F468A680B69DDF8208050
:106CE0009342B8BF1346C9F8003091F843200646D6
:106CF0000C4612B10133C9F800302368990642BF2F
:106D0000D9F800300233C9F80030256815F00605BF
:106D100007D104F1190AE368D9F800209B1AAB42A5
:106D200028DC94F843302268003318BF0123920610
:106D30002DD404F1430239463046C047013020D0FB
:106D40002368E568D9F8002003F00603042B08BF88
:106D5000AD1AA36822690CBF25EAE57500259342A8
:106D6000C4BF9B1AED184FF000091A344D451AD1D3
:106D7000002008E00123524639463046C047013022
:106D800003D14FF0FF30BDE8F0870135C3E7E118CC
:106D90005A1C302081F84300224494F8451082F8B0
:106DA00043100233C5E70123224639463046C04727
:106DB0000130E6D009F10109D8E700002DE9F043E0
:106DC00001F1430C0C46097E85B06E291746064634
:106DD00098460C9A00F0B38022D8632936D00AD89E
:106DE000002900F0B980582900F0838004F14205A1
:106DF00084F8421032E0642901D06929F6D1206874
:106E00001368050603F104012AD51B681160002BE5
:106E100003DA2D225B4284F843206F480A2239E0CE
:106E2000732900F09D8008D86F2920D07029DDD10A
:106E3000236843F02003236003E0752917D07829E5
:106E4000D4D1782384F84530644855E01368191D7F
:106E50001B68116004F1420584F8423001238CE084
:106E60001B68116010F0400F18BF1BB2CFE713680A
:106E70002568181D1060280601D51B6802E0680609
:106E8000FBD51B8854486F2914BF0A220822002111
:106E900084F843106568A560002DC0F295802168D4
:106EA00021F004012160002B3DD1002D40F08E80A7
:106EB0006546082A0BD12368DB0708D52369626879
:106EC0009A42DEBF302305F8013C05F1FF35ACEBFB
:106ED00005032361CDF800803B4603AA21463046D6
:106EE000FFF7F6FE01304DD14FF0FF3005B0BDE8A1
:106EF000F083394884F84510136821681D1D1B680C
:106F000015600A060BD5CA0744BF41F02001216075
:106F10001BB9226822F0200222601022B7E74D063A
:106F200048BF9BB2EFE76546B3FBF2F102FB1133BA
:106F3000C35C05F8013D0B460029F5D1B9E713689C
:106F400025686169181D106028061B6801D5196045
:106F500002E06A06FBD51980002323616546B9E784
:106F60001368191D11601D6862680021284600F031
:106F7000F7FA08B1401B606063682361002384F85E
:106F80004330A7E723692A4639463046C0470130D7
:106F9000AAD023689B0713D4E068039B9842B8BF2C
:106FA0001846A3E701234A4639463046C047013018
:106FB0009AD00135E368039A9B1AAB42F2DCEBE707
:106FC000002504F11909F5E7002BACD1037884F80A
:106FD000423004F142056CE7817F0000927F00009F
:106FE00038B5064C002305460846236000F032FC05
:106FF000431C02D1236803B12B6038BD802A0020D6
:10700000034613F8012B002AFBD1181A01387047E8
:10701000F8B50E461446054618B183690BB900F061
:10702000AFF9214B9C422AD16C68A369A360A38964
:107030001A072ED5236963B323692068C01A6369D0
:10704000F6B28342374604DC2146284600F02EF98A
:1070500028BBA368013BA36023685A1C22601E70F2
:1070600063690130834204D0A389DB0719D50A2E56
:1070700017D12146284600F019F990B10FE00B4BCB
:107080009C4201D1AC68D0E7094B9C4208BFEC6838
:10709000CBE72146284600F00DF80028CCD04FF071
:1070A000FF373846F8BD00BFC47F0000E47F000012
:1070B000A47F0000324B70B51D6806460C4625B112
:1070C000AB6913B9284600F05BF92E4B9C420FD1F7
:1070D0006C68B4F90C309AB215072CD4D00611D4D0
:1070E0000922326043F04003A3814FF0FF303EE0BD
:1070F000254B9C4201D1AC68EBE7244B9C4208BF76
:10710000EC68E6E7510712D5616B41B104F1440325
:10711000994202D03046FFF7F5FB00236363A38951
:1071200023F02403A3810023636023692360A389E0
:1071300043F00803A38123694BB9A38903F42073A7
:10714000B3F5007F03D02146304600F0C7F9A2898D
:1071500012F001030CD00023A36063695B42A361BA
:10716000236953B9B4F90C3013F08000BAD170BD63
:10717000920758BF6369A360F2E70020F7E700BFFA
:1071800084000020C47F0000E47F0000A47F000092
:1071900008B5062000F05EFA012000F071FB000047
:1071A0008A892DE9F041054610070C4658D44B68F2
:1071B000002B05DC0B6C002B02DC0020BDE8F0810D
:1071C000E66A002EF9D0002312F480522F68216A5B
:1071D0002B6032D0606DA3895A0705D56368C01A49
:1071E000636B0BB1236CC01A00230246E66A216A66
:1071F0002846B047431CA38906D129681D2948D8D1
:10720000294ACA40D60744D500226260D9042269BF
:10721000226004D5421C01D12B6803B96065616B03
:107220002F600029C9D004F14403994202D02846B6
:10723000FFF768FB00206063C0E701232846B047E2
:10724000411CC8D12B68002BC5D01D2B01D0162B9B
:1072500001D12F60B1E7A38943F04003A381ADE7DB
:107260000F69002FA9D093070E6808BF4B690F6004
:1072700018BF0023A6EB07088B60B8F1000F9CDD58
:1072800043463A46216AA66A2846B047002806DCEB
:10729000A38943F04003A3814FF0FF308EE70744FA
:1072A000A8EB0008E9E700BF0100402038B50B69F2
:1072B00005460C46DBB118B183690BB900F060F8E4
:1072C0000C4B9C4209D16C68B4F90C307BB121465F
:1072D0002846BDE83840FFF763BF074B9C4201D109
:1072E000AC68F1E7054B9C4208BFEC68ECE7002076
:1072F00038BD00BFC47F0000E47F0000A47F000011
:10730000002310B50446C0E90033836081814366E1
:10731000C281C0E904338361194608225C30FFF75B
:10732000E8FA054B6362054BA362054BE362054B2C
:107330002462236310BD00BF8D760000AF7600008D
:10734000E77600000B770000014900F085B800BF28
:10735000AD72000070B54A1E682555430E4605F112
:107360007401FFF71DFB044640B10021C0E900167F
:107370000C30A06005F16802FFF7BBFA204670BD33
:10738000836910B5044633BBC0E912330365124B61
:10739000124A1B688262984204BF0123836100F095
:1073A0001FF86060204600F01BF8A060204600F047
:1073B00017F80022E06004216068FFF7A1FF0122B6
:1073C0000921A068FFF79CFF02221221E068FFF765
:1073D00097FF0123A36110BD6C7F0000497300007B
:1073E000F8B51B4B1E68B369074613B93046FFF763
:1073F000C7FF4836D6E90134013B03D5336833B1C2
:107400003668F7E7B4F90C506DB16834F4E704213D
:107410003846FFF79FFF30600028F1D10C233B6016
:1074200004462046F8BD0B4B6566C4E90055A560CF
:10743000C4E90335C4E905550822294604F15C0076
:10744000FFF757FAC4E90D55C4E91255E9E700BF43
:107450006C7F00000100FFFF2DE9F843804689465C
:1074600000F14804002614B93046BDE8F883D4E999
:107470000175013F01D52468F5E7AB89012B07D9D8
:10748000B5F90E30013303D029464046C8470643BC
:107490006835EEE770B50E46B1F90E10002996B0CA
:1074A00014461D4607DA00232B60B3891A0610D450
:1074B0004FF480630EE06A4600F04EF90028F2DBDC
:1074C000019A02F47042A2F500535A425A412A60CE
:1074D000EEE740230020236016B070BD8B8973B5A2
:1074E0009D0706460C4607D504F147032360236138
:1074F0000123636102B070BD01AB6A46FFF7CAFFAA
:10750000009905463046FFF74BFA48B9B4F90C30FC
:107510009A05EFD423F0030343F00203A381E3E7CA
:107520000D4BB362A389206043F08003A381009BCD
:107530006361019B20615BB1B4F90E10304600F02D
:107540001DF928B1A38923F0030343F00103A381AC
:10755000A3891D43A581CDE7497300000000000009
:1075600001F0FF01102A2BDB10F0070F08D010F8F4
:10757000013B013A8B422DD010F0070F42B3F6D1F8
:10758000F0B441EA012141EA014122F007047FF011
:1075900000070023F0E80256083C85EA010586EA68
:1075A000010685FA47F5A3FA87F586FA47F6A5FAA4
:1075B00087F68EB9EED1F0BC01F0FF0102F00702B0
:1075C00032B110F8013B013A83EA010313B1F8D15B
:1075D0000020704701387047002D06BF354603383C
:1075E000073815F0010F07D1013015F4807F02BF75
:1075F000013015F4C03F0130F0BC0138704700BFC6
:10760000704770471F2938B504460D4604D9162324
:1076100003604FF0FF3038BD426C12B152F8213098
:107620004BB9204600F030F82A4601462046BDE816
:10763000384000F017B8012B0AD0591C03D116238B
:1076400003600120E7E7002442F8254028469847D8
:107650000020E0E7024B01461868FFF7D3BF00BFE8
:107660008400002038B5074C002305460846114623
:10767000236000F0D7F8431C02D1236803B12B60CC
:1076800038BD00BF802A002000F0BCB810B50C4601
:10769000B1F90E1000F094F80028ABBF636DA38918
:1076A0001B1823F48053ACBF6365A38110BD2DE983
:1076B000F0411F468B89DB0505460C46164605D56D
:1076C00002230022B1F90E1000F068F8A389B4F982
:1076D0000E1023F48053A38132463B462846BDE872
:1076E000F04100F017B810B50C46B1F90E1000F0DB
:1076F00055F8431CA38915BF606523F4805343F4F8
:107700008053A38118BFA38110BDB1F90E1000F002
:1077100013B8000038B5074C05460846114600224C
:1077200022601A4600F0A4F8431C02D1236803B17A
:107730002B6038BD802A002038B5064C0023054652
:107740000846236000F04EF8431C02D1236803B1C1
:107750002B6038BD802A002038B5074C0023054631
:1077600008461146236000F045F8431C02D1236807
:1077700003B12B6038BD00BF802A002038B5064C0D
:10778000002305460846236000F044F8431C02D15C
:10779000236803B12B6038BD802A002038B5074C20
:1077A000054608461146002222601A4600F042F8BB
:1077B000431C02D1236803B12B6038BD802A00200E
:1077C00038B5074C054608461146002222601A4685
:1077D00000F038F8431C02D1236803B12B6038BD98
:1077E000802A0020024B58221A604FF0FF30704769
:1077F000802A0020024B58221A604FF0FF30704759
:10780000802A0020024B58221A604FF0FF30704748
:10781000802A0020024B58221A600020704700BFC7
:10782000802A0020024B58221A604FF0FF30704728
:10783000802A0020024B58221A604FF0FF30704718
:10784000802A0020024B58221A604FF0FF30704708
:10785000802A0020044A05491368002B08BF0B4604
:1078600018441060184670477C2A0020842A0020A3
:10787000024B58221A604FF0FF307047802A0020D8
:10788000FEE700BFF8B500BFF8BC08BC9E467047D5
:10789000F8B500BFF8BC08BC9E46704753746172CF
:1078A00074696E67207472616E73666572202E2E25
:1078B0002E00446F6E652120002A2A2A2A2A2A2AAD
:1078C0002A2A2A2A2A2A2A2A2A2A2A2A2A2A2A2A18
:1078D0000050726F6772616D205374617274004959
:1078E0006E6974696E672062756666657273007092
:1078F0005F736572636F6D20213D204E554C4C00C7
:10790000433A5C55736572735C53636F74745C4483
:107910006F63756D656E74735C4D792050726F6A1C
:10792000656374735C41726475696E6F5C436F72FA
:1079300065735C4164616672756974204172647537
:10794000696E6F436F72652D73616D645C6C696203
:107950007261726965735C5350495C5350492E6380
:10796000707000535049436C6173733A3A535049F5
:10797000436C61737328534552434F4D2A2C207535
:10798000696E74385F742C2075696E74385F742C5E
:107990002075696E74385F742C20536572636F6D47
:1079A00053706954585061642C20536572636F6D35
:1079B00052585061642900000000000017000000C8
:1079C0000200000000020000FF00030001090700A0
:1079D000000000001600000002000000000200008D
:1079E000FF00020000090600010000001100000075
:1079F0000E00000000020000FF000500FFFF010074
:107A000001000000100000000E0000000002000055
:107A1000FF000400FFFF0000010000000D00000057
:107A20000E00000000010000FF00010301090D002D
:107A3000010000000E0000000E0000000001000028
:107A4000FF000004000A0E00010000000F0000000B
:107A50000E00000000010000FF000104010A0F00F9
:107A6000010000000C0000000E00000000010000FA
:107A7000FF00000300090C000000000015000000DA
:107A80000E00000000020000FF000100FFFF0500E3
:107A900000000000140000000E00000000020000C2
:107AA000FF000000FFFF04000000000012000000C3
:107AB0000E00000000010000FF00020100080200AB
:107AC00000000000130000000E0000000001000094
:107AD000FF00030101080300000000001100000086
:107AE0000E00000000010000FF000101010701007D
:107AF00000000000100000000E0000000001000067
:107B0000FF0000010007000000000000020000006C
:107B100001000000020000000000FFFFFFFF020064
:107B2000000000000500000001000000020000004D
:107B30000500FFFF01050500000000000600000031
:107B4000010000000A000000060000060006060012
:107B50000000000004000000010000000A00000016
:107B600004000005000504000100000008000000FA
:107B7000010000000A0000000200000900090800DE
:107B80000100000009000000010000000A000000E0
:107B900003000109010909000100000002000000C2
:107BA00001000000020000000E00FFFFFFFF0200C6
:107BB00001000000030000000100000002000000BE
:107BC0000F00FFFFFFFF03000100000002000000A4
:107BD0000300000000010000FF000202FFFF02009E
:107BE000010000000300000003000000040000008A
:107BF000FF00FFFFFFFF0300000000000E00000079
:107C00000200000008000000FF00000800080E004D
:107C1000000000000D00000002000000080000004D
:107C2000FF00010701070D00000000000C0000002C
:107C30000200000008000000FF00000700070C0021
:107C40000100000006000000110000000400000018
:107C5000FF00FFFFFFFF0600000000001B00000008
:107C60001100000004000000FF00FFFFFFFF0B00F9
:107C700001000000070000000700000004000000F1
:107C8000FF00FFFFFFFF07000000000018000000DA
:107C90000700000000000000FF00FFFFFFFF0800DA
:107CA00000000000190000000700000000000000B4
:107CB000FF00FFFFFFFF09000000000012000000AE
:107CC0000200000002000000FF00FFFFFFFF0200B3
:107CD000000000001300000002000000020000008D
:107CE000FF00FFFFFFFF0300000000001100000085
:107CF0000200000002000000FF00FFFFFFFF010084
:107D000000000000100000000E0000000400000051
:107D1000FF00FFFFFFFF0000000000000300000065
:107D20000100000002000000FF00FFFFFFFF030052
:107D3000000000000200000001000000020000003E
:107D40001400FFFFFFFF020000000000050000001C
:107D500001000000020000001500FFFFFFFF05000A
:107D600000000000100000000E00000000010000F4
:107D7000FF000001000700000100000016000000E5
:107D80000E00000004000000FF00FFFFFFFF0600E0
:107D9000010000000A0000000700000000000000D1
:107DA000FF00FFFFFFFF0A00010000000B000000C2
:107DB0000700000000000000FF00FFFFFFFF0B00B6
:107DC00000000000080000000700000000000000A4
:107DD000FF00FFFFFFFF100000000000090000008F
:107DE0000700000000000000FF00FFFFFFFF090088
:107DF000000000000A000000070000000000000072
:107E0000FF00FFFFFFFF0A00000000000B00000062
:107E10000700000000000000FF00FFFFFFFF0B0055
:107E2000000000000000000019470000414700006A
:107E300015470000374700002F4700008547000026
:107E4000694700000000000000000000454B0000F2
:107E50002F4A000083490000594800007D48000077
:107E6000914800004164616672756974204D6574C3
:107E7000726F204D34000403090441646166727519
:107E80006974204C4C430012010002EF0201409A39
:107E90002320800001010203010D0A000030004090
:107EA00007032E002F003000310000000034004096
:107EB0000803320033003400350000000020014187
:107EC0001703360037003800390000000040014138
:107ED00018033A003B003C003D0000000000004356
:107EE00022033E003F004000410000000004004328
:107EF000230342004300440045000000000000004E
:107F000000000000315F000061570000615E00006A
:107F10000F5E00002B5E0000DD5F0000315C0000A2
:107F2000275C0000B15C00004B5C0000235C00009B
:107F30002C2066756E6374696F6E3A2000617373EE
:107F4000657274696F6E2022257322206661696CE8
:107F500065643A2066696C6520222573222C206CAA
:107F6000696E65202564257325730A00880000204A
:107F7000232D302B2000686C4C0065666745464712
:107F80000030313233343536373839414243444595
:107F90004600303132333435363738396162636404
:107FA0006566000000000000000000000000000006
:107FB00000000000000000000000000000000000C1
:107FC00000000000000000000000000000000000B1
:107FD00000000000000000000000000000000000A1
:107FE0000000000000000000000000000000000091
:107FF0000000000000000000000000000000000081
:08800000000000000000000078
:10800800FFFFFFFF00C2010000000800080B00028C
:108018000202000009040000010202000005240019
:1080280010010424020605240600010524010101AB
:108038000705810310001009040100020A0000006E
:108048000705020240000007058302400000000007
:10805800FFFFFFFF00000000830000000200000097
:108068008200000000000000000000000000000086
:10807800000000000000000000000000FFFFFFFFFC
:10808800000E27078800002000000000C47F0000C1
:10809800E47F0000A47F0000000000000000000052
:1080A80000000000000000000000000000000000C8
:1080B80000000000000000000000000000000000B8
:1080C80000000000000000000000000000000000A8
:1080D8000000000000000000000000000000000098
:1080E8000000000000000000894200004145000037
:1080F80099460000354800005157000065420000CD
:040000030000603960
:00000001FF
